{
    "contractName": "ZombieOwnership",
    "abi": [
        {
            "anonymous": false,
            "inputs": [
                {
                    "indexed": true,
                    "internalType": "address",
                    "name": "_owner",
                    "type": "address"
                },
                {
                    "indexed": true,
                    "internalType": "address",
                    "name": "_approved",
                    "type": "address"
                },
                {
                    "indexed": true,
                    "internalType": "uint256",
                    "name": "_tokenId",
                    "type": "uint256"
                }
            ],
            "name": "Approval",
            "type": "event"
        },
        {
            "anonymous": false,
            "inputs": [
                {
                    "indexed": false,
                    "internalType": "uint256",
                    "name": "zombieId",
                    "type": "uint256"
                },
                {
                    "indexed": false,
                    "internalType": "string",
                    "name": "name",
                    "type": "string"
                },
                {
                    "indexed": false,
                    "internalType": "uint256",
                    "name": "dna",
                    "type": "uint256"
                }
            ],
            "name": "NewZombie",
            "type": "event"
        },
        {
            "anonymous": false,
            "inputs": [
                {
                    "indexed": true,
                    "internalType": "address",
                    "name": "prviousOwner",
                    "type": "address"
                },
                {
                    "indexed": true,
                    "internalType": "address",
                    "name": "newOwner",
                    "type": "address"
                }
            ],
            "name": "OwnershipTransferred",
            "type": "event"
        },
        {
            "anonymous": false,
            "inputs": [
                {
                    "indexed": true,
                    "internalType": "address",
                    "name": "_from",
                    "type": "address"
                },
                {
                    "indexed": true,
                    "internalType": "address",
                    "name": "_to",
                    "type": "address"
                },
                {
                    "indexed": true,
                    "internalType": "uint256",
                    "name": "_tokenId",
                    "type": "uint256"
                }
            ],
            "name": "Transfer",
            "type": "event"
        },
        {
            "inputs": [
                {
                    "internalType": "address",
                    "name": "_approved",
                    "type": "address"
                },
                {
                    "internalType": "uint256",
                    "name": "_tokenId",
                    "type": "uint256"
                }
            ],
            "name": "approve",
            "outputs": [],
            "stateMutability": "payable",
            "type": "function"
        },
        {
            "inputs": [
                {
                    "internalType": "uint256",
                    "name": "_zombieId",
                    "type": "uint256"
                },
                {
                    "internalType": "uint256",
                    "name": "_targetId",
                    "type": "uint256"
                }
            ],
            "name": "attack",
            "outputs": [],
            "stateMutability": "nonpayable",
            "type": "function"
        },
        {
            "inputs": [
                {
                    "internalType": "address",
                    "name": "_owner",
                    "type": "address"
                }
            ],
            "name": "balanceOf",
            "outputs": [
                {
                    "internalType": "uint256",
                    "name": "",
                    "type": "uint256"
                }
            ],
            "stateMutability": "view",
            "type": "function"
        },
        {
            "inputs": [
                {
                    "internalType": "uint256",
                    "name": "_zombieId",
                    "type": "uint256"
                },
                {
                    "internalType": "uint256",
                    "name": "_newDna",
                    "type": "uint256"
                }
            ],
            "name": "changeDna",
            "outputs": [],
            "stateMutability": "nonpayable",
            "type": "function"
        },
        {
            "inputs": [
                {
                    "internalType": "uint256",
                    "name": "_zombieId",
                    "type": "uint256"
                },
                {
                    "internalType": "string",
                    "name": "_newName",
                    "type": "string"
                }
            ],
            "name": "changeName",
            "outputs": [],
            "stateMutability": "nonpayable",
            "type": "function"
        },
        {
            "inputs": [
                {
                    "internalType": "string",
                    "name": "_name",
                    "type": "string"
                }
            ],
            "name": "createRandomZombie",
            "outputs": [],
            "stateMutability": "nonpayable",
            "type": "function"
        },
        {
            "inputs": [
                {
                    "internalType": "uint256",
                    "name": "_zombieId",
                    "type": "uint256"
                },
                {
                    "internalType": "uint256",
                    "name": "_kittyId",
                    "type": "uint256"
                }
            ],
            "name": "feedOnKitty",
            "outputs": [],
            "stateMutability": "nonpayable",
            "type": "function"
        },
        {
            "inputs": [
                {
                    "internalType": "address",
                    "name": "_owner",
                    "type": "address"
                }
            ],
            "name": "getZombiesByOwner",
            "outputs": [
                {
                    "internalType": "uint256[]",
                    "name": "",
                    "type": "uint256[]"
                }
            ],
            "stateMutability": "view",
            "type": "function"
        },
        {
            "inputs": [],
            "name": "isOwner",
            "outputs": [
                {
                    "internalType": "bool",
                    "name": "",
                    "type": "bool"
                }
            ],
            "stateMutability": "view",
            "type": "function"
        },
        {
            "inputs": [
                {
                    "internalType": "uint256",
                    "name": "_zombieId",
                    "type": "uint256"
                }
            ],
            "name": "levelUp",
            "outputs": [],
            "stateMutability": "payable",
            "type": "function"
        },
        {
            "inputs": [],
            "name": "owner",
            "outputs": [
                {
                    "internalType": "address",
                    "name": "",
                    "type": "address"
                }
            ],
            "stateMutability": "view",
            "type": "function"
        },
        {
            "inputs": [
                {
                    "internalType": "uint256",
                    "name": "_tokenId",
                    "type": "uint256"
                }
            ],
            "name": "ownerOf",
            "outputs": [
                {
                    "internalType": "address",
                    "name": "",
                    "type": "address"
                }
            ],
            "stateMutability": "view",
            "type": "function"
        },
        {
            "inputs": [],
            "name": "renounceOwnership",
            "outputs": [],
            "stateMutability": "nonpayable",
            "type": "function"
        },
        {
            "inputs": [
                {
                    "internalType": "address",
                    "name": "_address",
                    "type": "address"
                }
            ],
            "name": "setKittyContractAddress",
            "outputs": [],
            "stateMutability": "nonpayable",
            "type": "function"
        },
        {
            "inputs": [
                {
                    "internalType": "uint256",
                    "name": "_fee",
                    "type": "uint256"
                }
            ],
            "name": "setLevelUpFee",
            "outputs": [],
            "stateMutability": "nonpayable",
            "type": "function"
        },
        {
            "inputs": [
                {
                    "internalType": "address",
                    "name": "_from",
                    "type": "address"
                },
                {
                    "internalType": "address",
                    "name": "_to",
                    "type": "address"
                },
                {
                    "internalType": "uint256",
                    "name": "_tokenId",
                    "type": "uint256"
                }
            ],
            "name": "transferFrom",
            "outputs": [],
            "stateMutability": "payable",
            "type": "function"
        },
        {
            "inputs": [
                {
                    "internalType": "address",
                    "name": "newOwner",
                    "type": "address"
                }
            ],
            "name": "transferOwnership",
            "outputs": [],
            "stateMutability": "nonpayable",
            "type": "function"
        },
        {
            "inputs": [],
            "name": "withdraw",
            "outputs": [],
            "stateMutability": "nonpayable",
            "type": "function"
        },
        {
            "inputs": [
                {
                    "internalType": "uint256",
                    "name": "",
                    "type": "uint256"
                }
            ],
            "name": "zombieToOwner",
            "outputs": [
                {
                    "internalType": "address",
                    "name": "",
                    "type": "address"
                }
            ],
            "stateMutability": "view",
            "type": "function"
        },
        {
            "inputs": [
                {
                    "internalType": "uint256",
                    "name": "",
                    "type": "uint256"
                }
            ],
            "name": "zombies",
            "outputs": [
                {
                    "internalType": "string",
                    "name": "name",
                    "type": "string"
                },
                {
                    "internalType": "uint256",
                    "name": "dna",
                    "type": "uint256"
                },
                {
                    "internalType": "uint32",
                    "name": "level",
                    "type": "uint32"
                },
                {
                    "internalType": "uint32",
                    "name": "readyTime",
                    "type": "uint32"
                },
                {
                    "internalType": "uint16",
                    "name": "winCount",
                    "type": "uint16"
                },
                {
                    "internalType": "uint16",
                    "name": "lossCount",
                    "type": "uint16"
                }
            ],
            "stateMutability": "view",
            "type": "function"
        }
    ],
    "bytecode": "608080604052346081575f805460ff19166010178155662386f26fc1000060015562015180600255600780546001600160a01b03191633908117909155907f8be0079c531659141344cd1fd0a4f28419497f9722a3daafe3b4186f6b6457e08180a366038d7ea4c680006008555f6009556046600a556113ae90816100868239f35b5f80fdfe60806040526004361015610011575f80fd5b5f3560e01c8063095ea7b314610de75780630ce90ec214610d9657806317a7f4cc14610bf55780632052465e14610ade57806323b872dd146109c45780633ccfd60b1461096d5780634412e1041461085c578063528b7b8f146107785780635f4623f11461081e5780635faf2880146107aa5780636352211e1461077857806370a0823114610740578063715018a6146106dd5780637bff0a01146106565780638da5cb5b1461062e5780638f32d59b14610605578063c39cbef11461045d578063ccf670f814610432578063e1fa7638146101755763f2fde38b146100f5575f80fd5b346101715760203660031901126101715761010e610e70565b6007546001600160a01b03163303610171576001600160a01b0316801561017157600754816001600160a01b0382167f8be0079c531659141344cd1fd0a4f28419497f9722a3daafe3b4186f6b6457e05f80a36001600160a01b03191617600755005b5f80fd5b346101715761018336610e86565b5f828152600460205260409020546001600160a01b03163303610171576101b36101ac83610e9c565b5091610e9c565b509060646009546101cf6101c682610fea565b918210156112fb565b8060095560405160208101914283523360601b60408301526054820152605481526101fb607482610f0b565b51902006600a5410155f146103e2576002019061023e61022261ffff845460401c16611316565b835461ffff60401b191660409190911b61ffff60401b16178355565b63ffffffff82541691600183019263ffffffff84116103ce578361026d63ffffffff92836001971610156112fb565b1663ffffffff198254161790556102ae6002820161029261ffff825460501c16611316565b815461ffff60501b191660509190911b61ffff60501b16179055565b015460409182516102bf8482610f0b565b600681526020810191657a6f6d62696560d01b8352805f52600460205260018060a01b03855f2054163303610171576102f790610e9c565b50924263ffffffff600286015460201c16116101715761031d6103279160015490610fcc565b6001850154610ff8565b60011c9161035360208651809382820195518091875e81015f838201520301601f198101835282610f0b565b51902083516020810190646b6974747960d81b825260058152610377602582610f0b565b519020146103b3575b6103ac90836103946103b195519182610f0b565b60068152654e6f4e616d6560d01b6020820152611012565b61133b565b005b8060646103c1920690611005565b6063810180911115610380575b634e487b7160e01b5f52601160045260245ffd5b906103b1925060026103ac9161040582850161029261ffff825460501c16611316565b0161041761ffff825460401c16611316565b61ffff60401b82549160401b169061ffff60401b1916179055565b34610171576020366003190112610171576007546001600160a01b0316330361017157600435600855005b346101715760403660031901126101715760043560243567ffffffffffffffff811161017157610491903690600401610f51565b90600263ffffffff816104a384610e9c565b5001541610610171575f818152600460205260409020546001600160a01b03163303610171575f818152600460205260409020546001600160a01b03163303610171576104ef90610e9c565b50815167ffffffffffffffff81116105f15761050b8254610ed3565b601f81116105ac575b50602092601f821160011461055057928192935f92610545575b50505f19600383901b1c191660019190911b179055005b01519050838061052e565b601f19821693835f52805f20915f5b868110610594575083600195961061057c575b505050811b019055005b01515f1960f88460031b161c19169055838080610572565b9192602060018192868501518155019401920161055f565b825f5260205f20601f830160051c810191602084106105e7575b601f0160051c01905b8181106105dc5750610514565b5f81556001016105cf565b90915081906105c6565b634e487b7160e01b5f52604160045260245ffd5b34610171575f36600319011261017157602060018060a01b036007541633146040519015158152f35b34610171575f366003190112610171576007546040516001600160a01b039091168152602090f35b346101715760203660031901126101715760043567ffffffffffffffff811161017157610687903690600401610f51565b335f52600560205260405f2054610171576103b1906106d760405160208101906106cb602082865180838901875e81015f838201520301601f198101835282610f0b565b51902060015490610fcc565b90611012565b34610171575f366003190112610171576007546001600160a01b03163303610171576007545f6001600160a01b0382167f8be0079c531659141344cd1fd0a4f28419497f9722a3daafe3b4186f6b6457e08280a36001600160a01b031916600755005b34610171576020366003190112610171576001600160a01b03610761610e70565b165f526005602052602060405f2054604051908152f35b34610171576020366003190112610171576004355f526004602052602060018060a01b0360405f205416604051908152f35b34610171576107b836610e86565b90601463ffffffff60026107cb84610e9c565b5001541610610171575f818152600460205260409020546001600160a01b03163303610171575f818152600460205260409020546001600160a01b0316330361017157610819600191610e9c565b500155005b34610171576020366003190112610171576001600160a01b0361083f610e70565b166bffffffffffffffffffffffff60a01b60065416176006555f80f35b34610171576020366003190112610171576001600160a01b0361087d610e70565b16805f52600560205260405f2054906108ae61089883610fb4565b926108a66040519485610f0b565b808452610fb4565b602083019190601f19013683376003545f91825b82811061090d578486604051918291602083019060208452518091526040830191905f5b8181106108f4575050500390f35b82518452859450602093840193909201916001016108e6565b5f818152600460205260409020546001600160a01b03168214610933575b6001016108c2565b928551811015610959578360208260051b880101525f1981146103ce576001019261092b565b634e487b7160e01b5f52603260045260245ffd5b34610171575f366003190112610171576007546001600160a01b03163303610171575f80808060018060a01b036007541647908282156109bb575bf1156109b057005b6040513d5f823e3d90fd5b506108fc6109a8565b6060366003190112610171576109d8610e70565b6024356001600160a01b038116908190036101715760443591825f52600460205260018060a01b0360405f20541633148015610abf575b15610171576001600160a01b03165f81815260056020526040902054610a3860018210156112fb565b5f1981019081116103ce57815f52600560205260405f2055815f52600560205260405f2054610a696101c682610fea565b825f52600560205260405f2055825f52600460205260405f20826bffffffffffffffffffffffff60a01b8254161790557fddf252ad1be2c89b69c2b068fc378daa952ba7f163c4a11628f55a4df523b3ef5f80a4005b505f838152600b60205260409020546001600160a01b03163314610a0f565b346101715760203660031901126101715760043560035481101561017157610b0590610e9c565b506040515f918054610b1681610ed3565b8084529060018116908115610bd15750600114610b98575b50610b3e82610b5f940383610f0b565b61ffff6002600183015492015460405194859460c0865260c0860190610f2d565b92602085015263ffffffff8116604085015263ffffffff8160201c166060850152818160401c16608085015260501c1660a08301520390f35b9250805f5260205f205f905b848210610bbb575082016020019250610b3e610b2e565b6001816020925483858801015201910190610ba4565b60ff191660208086019190915291151560051b84019091019350610b3e9050610b2e565b3461017157610c0336610e86565b60065460405163e98b7f4d60e01b8152600481019290925261014090829060249082906001600160a01b03165afa9081156109b0575f91610d47575b506040918251610c4f8482610f0b565b600581526020810191646b6974747960d81b8352805f52600460205260018060a01b03855f205416330361017157610c8690610e9c565b509263ffffffff600285015460201c1642106101715761031d610cac9160015490610fcc565b60011c91610cd860208651809382820195518091875e81015f838201520301601f198101835282610f0b565b51902083516020810190646b6974747960d81b825260058152610cfc602582610f0b565b51902014610d19575b6103ac906103b19361039481519182610f0b565b806064610d27920690611005565b6063810180911115610d0557634e487b7160e01b5f52601160045260245ffd5b9050610140813d8211610d8e575b81610d636101409383610f0b565b810103126101715780610d7861012092610fa7565b50610d8560208201610fa7565b50015182610c3f565b3d9150610d55565b6020366003190112610171576008543403610171576002610db8600435610e9c565b500163ffffffff81541663ffffffff81146103ce57815463ffffffff191660019190910163ffffffff16179055005b604036600319011261017157610dfb610e70565b6024355f818152600460205260409020549091906001600160a01b03163303610171575f828152600b6020526040812080546001600160a01b0319166001600160a01b0393909316928317905533907f8c5be1e5ebec7d5bd14f71427d1e84f3dd0314c0f7b2291e5b200ac8c7c3b9259080a4005b600435906001600160a01b038216820361017157565b6040906003190112610171576004359060243590565b6003548110156109595760035f81815291027fc2575a0e9e593c00f959f8c92f12db2869c3395a3b0502d05e2516446f71f85b0191565b90600182811c92168015610f01575b6020831014610eed57565b634e487b7160e01b5f52602260045260245ffd5b91607f1691610ee2565b90601f8019910116810190811067ffffffffffffffff8211176105f157604052565b805180835260209291819084018484015e5f828201840152601f01601f1916010190565b81601f820112156101715780359067ffffffffffffffff82116105f15760405192610f86601f8401601f191660200185610f0b565b8284526020838301011161017157815f926020809301838601378301015290565b5190811515820361017157565b67ffffffffffffffff81116105f15760051b60200190565b8115610fd6570690565b634e487b7160e01b5f52601260045260245ffd5b90600182018092116103ce57565b919082018092116103ce57565b919082039182116103ce57565b63ffffffff61102360025442610ff8565b1660405160c0810181811067ffffffffffffffff8211176105f15760405282815260208101908482526040810192600184526060820190815260808201915f835260a08101935f8552600354680100000000000000008110156105f1578060016110909201600355610e9c565b9290926112e8575180519067ffffffffffffffff82116105f1576110b48454610ed3565b601f81116112a3575b50602090601f83116001146112215761117898979563ffffffff80600261115c9861ffff9b9798898d9a6111409986995f92611216575b50508160011b915f199060031b1c19161782555b516001820155019a51161682198a54161789555116879067ffffffff0000000082549160201b169067ffffffff000000001916179055565b51855461ffff60401b1916911660401b61ffff60401b16178455565b51825461ffff60501b1916911660501b61ffff60501b16179055565b6003545f1981019081116103ce575f81815260046020908152604080832080546001600160a01b03191633908117909155835260059091529020547f88f026aacbbecc90c18411df4b1185fd8d9be2470f1962f192bf84a27d0704b793906111e26101c682610fea565b335f52600560205260405f205561120b6040519384938452606060208501526060840190610f2d565b9060408301520390a1565b015190505f806110f4565b90601f19831691855f52815f20925f5b81811061128b575063ffffffff600261115c9861ffff9b979860016111789f9e9c969a611140998f9c99879a83899a10611273575b505050811b018255611108565b01515f1960f88460031b161c191690555f8080611266565b92936020600181928786015181550195019301611231565b845f5260205f20601f840160051c810191602085106112de575b601f0160051c01905b8181106112d357506110bd565b5f81556001016112c6565b90915081906112bd565b634e487b7160e01b5f525f60045260245ffd5b1561130257565b634e487b7160e01b5f52600160045260245ffd5b61ffff16600181019061ffff82116103ce576113389061ffff831610156112fb565b90565b61137690600263ffffffff611351825442610ff8565b1691019067ffffffff0000000082549160201b169067ffffffff000000001916179055565b56fea2646970667358221220725dac1bb91dbd2a7ee607fbf1bc52d0b491b4600d8cdff988d4524d80fd189e64736f6c634300081c0033",
    "sourcePath": "d:/University/Solidity/CryptoZombieHardhatProject/contracts/zombieownership.sol",
    "compiler": {
        "name": "solc",
        "version": "0.8.28+commit.7893614a"
    },
    "functionHashes": {
        "approve(address,uint256)": "095ea7b3",
        "attack(uint256,uint256)": "e1fa7638",
        "balanceOf(address)": "70a08231",
        "changeDna(uint256,uint256)": "5faf2880",
        "changeName(uint256,string)": "c39cbef1",
        "createRandomZombie(string)": "7bff0a01",
        "feedOnKitty(uint256,uint256)": "17a7f4cc",
        "getZombiesByOwner(address)": "4412e104",
        "isOwner()": "8f32d59b",
        "levelUp(uint256)": "0ce90ec2",
        "owner()": "8da5cb5b",
        "ownerOf(uint256)": "6352211e",
        "renounceOwnership()": "715018a6",
        "setKittyContractAddress(address)": "5f4623f1",
        "setLevelUpFee(uint256)": "ccf670f8",
        "transferFrom(address,address,uint256)": "23b872dd",
        "transferOwnership(address)": "f2fde38b",
        "withdraw()": "3ccfd60b",
        "zombieToOwner(uint256)": "528b7b8f",
        "zombies(uint256)": "2052465e"
    },
    "gasEstimates": {
        "creation": {
            "codeDepositCost": "1007600",
            "executionCost": "144464",
            "totalCost": "1152064"
        },
        "external": {
            "approve(address,uint256)": "28619",
            "attack(uint256,uint256)": "infinite",
            "balanceOf(address)": "2640",
            "changeDna(uint256,uint256)": "infinite",
            "changeName(uint256,string)": "infinite",
            "createRandomZombie(string)": "infinite",
            "feedOnKitty(uint256,uint256)": "infinite",
            "getZombiesByOwner(address)": "infinite",
            "isOwner()": "2607",
            "levelUp(uint256)": "30814",
            "owner()": "2580",
            "ownerOf(uint256)": "2551",
            "renounceOwnership()": "28283",
            "setKittyContractAddress(address)": "24615",
            "setLevelUpFee(uint256)": "24744",
            "transferFrom(address,address,uint256)": "infinite",
            "transferOwnership(address)": "28548",
            "withdraw()": "infinite",
            "zombieToOwner(uint256)": "2485",
            "zombies(uint256)": "infinite"
        },
        "internal": {
            "_transfer(address,address,uint256)": "infinite"
        }
    }
}